{
  "contractName": "HelloWorld",
  "abi": [
    {
      "constant": true,
      "inputs": [],
      "name": "balance",
      "outputs": [
        {
          "name": "",
          "type": "uint256"
        }
      ],
      "payable": false,
      "stateMutability": "view",
      "type": "function"
    }
  ],
  "bytecode": "0x60806040526064600055348015601457600080fd5b50607b806100236000396000f3fe6080604052348015600f57600080fd5b506004361060285760003560e01c8063b69ef8a814602d575b600080fd5b60336049565b6040518082815260200191505060405180910390f35b6000548156fea165627a7a72305820ec2dd1e629e7bd94b9ffc79634803c1d8cfe227d25bc510b5f6d6e81177e4b5a0029",
  "source": "pragma solidity >=0.5.0 <0.6.0;\r\n\r\ncontract HelloWorld{\r\n    uint256 public balance = 100;\r\n}",
  "sourcePath": "D:/truffle_test/wanchain_test/contracts/HelloWorld.sol",
  "compiler": {
    "name": "solc",
    "version": "0.5.8+commit.23d335f2.Emscripten.clang"
  },
  "schemaVersion": "3.0.11",
  "updatedAt": "2019-07-18T11:28:41.950Z",
  "devdoc": {
    "methods": {}
  },
  "userdoc": {
    "methods": {}
  }
}